:10000000F01F0000150000100000000000000000BC
:1000100000207047F8B518482921490608620120D8
:10002000086000204861012088600F2008610020DE
:1000300008613F20C861FE20C8600420486000BFFE
:1000400000BF00BF00BFFFF7E3FF00900B4845680B
:1000500000260746002404E0A0003858A100705094
:10006000641C202CF8D300204560A84700BF00BFC7
:1000700000BF00BFF8BD0000A07F0000000400101A
:100080000000000000000000000000000000000070
:100090000000000000000000000000000000000060
:1000A0000000000000000000000000000000000050
:1000B0000000000000000000000000000000000040
:1002C000000300000000000000000000000000002B
:1002D0000003000000B900000003000000B90000A6
:1002E00000C00000000400000100010001004800FF
:1002F000190F4341525245524200000001000000D4
:1003000000000000000000000000000000000000ED
:1003100000000000000000000000000000000000DD
:1003200000000000000000000000000000000000CD
:1003300000000000000000000000000000000000BD
:1003400000000000000000000000000000000000AD
:10035000000000000000000000000000000000009D
:10036000000000000000000000000000000000008D
:10037000000000000000000000000000000000007D
:10038000000000000000000000000000000000006D
:10039000000000000000000000000000000000005D
:1003A000000000000000000000000000000000004D
:1003B000000000000000000000000000000000003D
:1003C000000000000000000000000000000000002D
:1003D000000000000000000000000000000000001D
:1003E000000000000000000000000000000000000D
:1003F00000000000000000000000000000000000FD
:10040000F01F00007F060010000000000000000048
:1004100000000000000000000000000000000000DC
:1004200000000000000000000000000000000000CC
:100430000000000000000000F1050010B38E001065
:10044000551200107D0600107D0600107D0600107C
:100450007D0600106D070010952100105518001042
:100460007D0600107D0600107D0600107D06001040
:100470007D060010E50600107D0600107D060010C8
:100480007D0600107D0600107D0600107D06001020
:100490007D0600107D0600107D0600107D06001010
:1004A0007D0600107D0600107D0600107D06001000
:1004B0007D0600107D0600107D0600107D060010F0
:1004C00003B40148019001BDE11F000003B40148DD
:1004D000019001BDC100000000F002F800F040F8FA
:1004E0000CA030C8083824182D18A246671EAB4649
:1004F00054465D46AC4201D100F032F87E460F3ED4
:100500000FCCB6460126334200D0FB1AA246AB46BA
:100510003343184760B40000D0B40000103A02D34F
:1005200078C878C1FAD8520701D330C830C101D594
:1005300004680C607047000000230024002500269A
:10054000103A01D378C1FBD8520700D330C100D58F
:100550000B6070471FB5C046C0461FBD10B510BD2B
:1005600009F012FE1146FFF7F5FF00F09EF809F0C2
:100570002AFE03B4FFF7F2FF03BC01F00AFE0000FD
:10058000FCB40022002300240025002600270629B1
:1005900002D4FCC00639FAE7002902D004C00139B0
:1005A000FAE7FCBC7047000002B472B60178013172
:1005B000017062B60139080002BC704702B472B61D
:1005C00001780139017062B6080002BC7047000072
:1005D00062B6704772B670471C3880F3098870475E
:1005E000014802490160704704ED00E0000000107E
:1005F000114B1968114A1268914216D0EFF3098025
:1006000020380860F0C044464D4656465F46F0C06C
:100610001A6010681030F0C8A046A946B246BB4622
:100620002038F0C8103080F30988054B002018707E
:100630000420404200470000C4050000C00500003F
:10064000A505000070B505460C46164602E00FCC25
:100650000FC5103E102EFAD2082E02D303CC03C5CC
:10066000083E042E07D301CC01C5361F03E02178D4
:100670002970641C6D1C761EF9D270BDFEE710B5A2
:10068000FFF72AFF10BD10B508F067F90F4B104AAD
:100690000021104808F0C3FC0F4B104A00211048FD
:1006A00008F0BDFC08F07CF910BD10B500F0BAF9F7
:1006B000FFF706FF01F0CEF900F054FC00F0F7FD63
:1006C00000F056FCFFF7DFFF012010BD60070000BF
:1006D000096400009F660010100C00000A2C010045
:1006E0000D1C001010B508F003F9F948407808F027
:1006F0004EFBF8490F20C86208F0FFF810BDF8B5AE
:100700000246A032937DF44C5D009E005C23009570
:100710005F5C3B0009F0BAFD08070A050A07050AF5
:10072000070A0C6B05E0D27A022A15D0002001F0EE
:1007300063F8EA498020C8623004E94A801C5061AD
:100740002804801C55210906486120042043886143
:10075000906101200860F8BD4C6A9021415E481C00
:10076000E7D035460029E4D1009DE2E770B5DD4CC5
:10077000C820055908F0BCF80120552109068862F7
:100780002046A0300188891E0B0009F07FFD070577
:1007900005232305050523002146803110228A5EAA
:1007A000002A10DD521E0A820088062803D100218B
:1007B000022000F014FA204601F0C6FB294620462C
:1007C000FFF79DFF09E00321C172C148007808F0DE
:1007D000DEFA02E0002001F00FF808F08EF870BD9C
:1007E00070B505460446203501F04FFCC0346079F1
:1007F000A881012070BDF8B506460F460125344694
:10080000284600227F21A0343B0009F03FFD070568
:10081000090D110B13111500E2742175A0740EE07F
:100820002022F9E74022F7E74D20E074A27406E0A9
:100830004422F1E70225EFE7002000F0DDFF294622
:10084000304600F0ADFFF8BDF8B507460020085E61
:100850000C46C00F00F0D0FF20883D464042E080AB
:10086000A07AA03528803E46608880363082E088B5
:1008700078642089F083E07A2872207BA872202097
:10088000005D2873207D6873607D2877A17DC52079
:10089000C1552079B074E07EE873207EB08300F00B
:1008A000FBFD407E687200F0F7FDC07D30760121CF
:1008B0004020C153A07EFE21401C0840A875607EE8
:1008C00068752069B06300206877864800F05AF99F
:1008D0002888801E030009F0D9FC07270534340559
:1008E0002205340000F0D8FD2030807900280BD09C
:1008F0002888082808D0768B607E31468019401EF3
:1009000008F0CEFE70436875E17D7648FFF773FF0F
:10091000744801F065FA384601F0B7FB14E0002195
:100920007048FFF768FF08E002216E48FFF763FF99
:10093000E08880086877002030763846FFF750FF5F
:1009400002E0002000F058FF0120F8BD10B501467C
:10095000654808F09BFE410A5E4A0120403A50601B
:100960005C48002303620F23C3620161FF214161E0
:100970008161032151600421016210BD70B50246FE
:10098000584C0846A034130009F080FC0C47332271
:1009900047474143074747130B47524800F0AAF81F
:1009A0003EE00D46A17FA9423AD0FFF7CFFFA577E1
:1009B00036E0CAB229214906486BFF231B021840C2
:1009C0004A4B00241C5F002C00DA1043486327E0E8
:1009D0004448FFF739FF00F05FFD414B40300021F4
:1009E000803B8A008458D2181462491C0829F8D325
:1009F00016E03C4EC82081510220E0720D46304680
:100A000001F0A2FA29463046FFF779FE08E00120FE
:100A100000E0002000F04AF802E0002000F0ECFEC8
:100A2000012070BDF8B50021084607F0DDFF284C15
:100A300000212070084607F0D7FF6070294C01257F
:100A40004020055320460421803081832146022224
:100A5000A0314A808A8040390D8205800F268E831E
:100A600086812746204601F0A8FC204600F08AF83F
:100A700001F0E1FC01F060FA0121204600F090FE57
:100A8000CC2221463846FFF7DDFDA91E5520000681
:100A900081621049CE62114A1549403A11620F49EC
:100AA0008022CA6200220A630562F8BD10B50C46B6
:100AB000002803D0084601F0D2FB10BD00F0ECFC8A
:100AC0002030407A0028F8D0204601F0AEFB10BD5F
:100AD000A004000080000052CDCDCDCDC003005554
:100AE00000010055140C0000005A62027805000055
:100AF0003343000070B5054600F0CEFC807F01F066
:100B0000D7FB00F0C9FC2030C079294601F03BFC3E
:100B100000F0C2FC808CFFF719FF284600F032F885
:100B2000002400F0B9FC2030007A002806D0102400
:100B300000F0B2FC2030007A01F058FB0848102188
:100B400081630463074A1278002A01D0016300E040
:100B5000046300F0A1FC808CA035A87770BD000074
:100B6000C00300557505000010B5012806D04E4998
:100B70000846143001F044FB012010BD002000F0B5
:100B80003BFEF9E710B5FF215322120604465160DF
:100B900004201062516200239362D3621163434ABE
:100BA00051604348106253629162404A4032516042
:100BB0001062536291623D4A80325160106253620A
:100BC00091623A4AC03251601062536291620020D1
:100BD000FFF7CAFF0620A034A071E07110BDF8B580
:100BE00004460D46009100F057FC3248EE000778AD
:100BF0007000761C7100761C7200761C73009C4697
:100C0000761C73009E46761C7300761C7500761C5D
:100C10007600002F2BD0032C01D0022C26D1552496
:100C2000009F2406002F37D0234F2763234F67638D
:100C3000214F4037A7631C4C3434275A1B48476068
:100C4000615A01621948A15A403041606146615AB7
:100C500001627046215A154880304160E15A0162B4
:100C60001248615BC0304160A15B0162F8BD032C9A
:100C7000FCD1144F124C3C613C620B4C3434275A6B
:100C80000A484760615A01620849A05A40314860E9
:100C90006046205A0862DCE70B4F27630B4F6763FF
:100CA000094F3037C6E7000010A60010000040537F
:100CB00055550000750500008CCCCCCCCCCC8CCC30
:100CC0000000F0FF4000005269999999999969993B
:100CD00010B52421663008F0D5FC012010BDF8B510
:100CE0000446074605462037A034787F6076387F73
:100CF000A076012020730020206128682080686D84
:100D0000E07600F0C9FB407D207500F0C5FB408A0D
:100D1000208100F0C1FB007D607500F0BDFBC07F4D
:100D2000207100F0B9FB20308079E07500F0B4FB51
:100D3000807D2946207640312E46087F0022D2430E
:100D4000C0366035022824D0042839D0052820D0A8
:100D5000072835D000F0A0FB007E4042608000F004
:100D60009BFB4078A07200F097FB807E20730620EA
:100D7000E07200203070E0612879002806D0012858
:100D800004D0022802D0002000F036FD0120E072DD
:100D9000F8BD0220A07262802878A0756878208152
:100DA000A8786075002020750622E27230702061FC
:100DB0000120E061087F0528E8D10720A072E5E75F
:100DC00009206076387FA076012020766280082195
:100DD000A17220730620E072002030700321E061D0
:100DE000E1750A22228161752075CFE701207047E5
:100DF00070B5054604466030017042708370FF2074
:100E000001217D30015502215C200155A03520468D
:100E1000FFF765FF29460220FFF7B0FD21460120BC
:100E2000FFF7ACFD70BD70B505460446603001703B
:100E300042708370FF2001217D30015505215C2027
:100E40000155A0352046FFF74AFF29460220FFF74B
:100E500095FD21460120FFF791FD70BD70B5044658
:100E60000546FF300022613002775C200155206C7E
:100E7000A0351E46002806D12046FFF730FF294640
:100E80000220FFF77BFD21460120FFF777FD044696
:100E9000002E02D0002000F0AFFC204670BDF8B557
:100EA0000546A03504460E461746002B0BD00621FA
:100EB000104607F081FE002802D0002000F09CFCC4
:100EC000384607F035FFFF2000217D3001555C20BA
:100ED00006552046FFF703FF29460220FFF74EFD87
:100EE00021460120FFF74AFDF8BD70B55C1C65087E
:100EF0006D001524A406049EA161E0610120A0609C
:100F0000521E11045A1E1143E1606904891C2161BB
:100F10005904891C6161A0622060002E02D06068C3
:100F20000028FCDB70BDF0B5059D069F6C1C6608B3
:100F300076001524A406A161E0610120A060521E84
:100F400011046D1E2943E1607104891C216159045B
:100F5000891C6161A0622060002F02D060680028B7
:100F6000FCDBF0BD01211520800681620162704723
:100F70000849074808620948074901600849416073
:100F800008494017086007490748803908607047DA
:100F90000000C04000ED00E00140404000E400E0FF
:100FA0004040004080E100E0E1200000F8B54178D9
:100FB000027809021143FE4A84785268FD4B944638
:100FC000803211825482CA1A0026FB4F01259942B1
:100FD00074D009DCF94A891A0DD0102910D01229D1
:100FE00045D013290BD19EE0012A68D0042A67D08E
:100FF000052AF7D1E0E0604640308577C577DDE02F
:101000001021EF4E042C317006D0032C0ED0022C90
:1010100016D0012C1ED0D1E00279C17812028918B5
:101020008AB2411D104606F031F81CE00279C17801
:10103000120289188AB2411D104606F0AFF812E07C
:101040000279C178120289188AB2411D104606F051
:1010500070F808E00279C178120289188AB2411D3D
:10106000104606F031F8002800DB3573A6E0D54ABB
:10107000D549002C08D0102C19D0D44A401C112C72
:1010800039D0122C43D099E00E70167000F004FA9B
:101090004021418200F000FA04210175C820B88087
:1010A000F880502038819620788178201EE00D70DD
:1010B000C078002805D0012806D07FE03DE042E05E
:1010C0005EE016700E7079E0157000F0E5F9802191
:1010D000418200F0E1F9052101756420B880F880B3
:1010E0002820388150207881FF202D307883FF2000
:1010F000C330B88362E00D70C17883780902194368
:1011000051804179037908021843108056E00D7030
:10111000C178837809021943D180417903790802A3
:10112000184390804AE0AA48012C04D0067300209E
:1011300005F0A1F842E0057340E03121A54808F030
:10114000A1FAA54839E0A54F012C01D03E7035E049
:1011500000F0A6F90446FF303D706421133008F01A
:1011600091FA2046FF300C21773008F08BFAE01D11
:10117000F930067446741A21823008F083FA1DE0B3
:101180009748002C02D0012C0BD017E00670962057
:10119000B880C821F9805021398178813D767D76EB
:1011A0000CE005706E20B880F8803220388178819C
:1011B00019203876787601E08A4804700120F8BD5D
:1011C0000121C903411A8903090E8B008649820552
:1011D000C958920D002907D081231B02C01A32285A
:1011E00004D87C4908187047002070478818704759
:1011F00010B5C2B27C4B000A4400203B1B5B9342FB
:1012000002D80020088010BD774C8000603C205838
:1012100080189A1A0A8010BDF0B505220124042511
:1012200012078426714B012807D00027022808D016
:10123000042808D0082808D109E05D4841601560FD
:1012400001E0002903D016601C700120F0BD15607C
:101250001F70FAE7F8B5664E746AF462E00501D5CE
:10126000302022E0A006800F20D0614D403D68680C
:10127000C007FCD052480078122803D10021022078
:10128000FFF7CAFF4A4F2046397800F019F80220CC
:101290002860012028600C2028625648A862564821
:1012A000286200203870FF2001303062F8BD70B530
:1012B0003F4C00256C20656000F045F8257070BD3E
:1012C000F8B54C4E70783178050249480D434038E6
:1012D000406A82218000800C0C1A022C0CD030DD78
:1012E0003648281A202816D200F029FA3046FFF78F
:1012F0005DFEFFF7F7F924E031480078122808D0A6
:1013000001210220FFF788FF2146284600F03CF823
:1013100017E00021F5E701200003854211D2A8B2B1
:101320006946FFF765FF00280BD069460988A41EAF
:10133000A14201DD69460C8069460A88B11C08F0AB
:1013400044F90120F8BD30B584210522120711604F
:1013500001231361002515622549022440390C60E0
:101360000B600C610B617F231B021843D0610C20C2
:10137000086220488862204808621D48E11EC16258
:10138000C562E101016230BDF8B5044609200025BF
:101390008001201A2B468C2834D21848844201D16F
:1013A0001748037000F07CF80019FF38313856E018
:1013B000A404000014080000380300000008000026
:1013C000FC020000600500005F05000064050000ED
:1013D0007C030000620D00005E0500006105000056
:1013E000290500002A050000A4A800101805000027
:1013F000C0000050E00C000009008200B2020000B2
:101400006305000001263603B44204D2A0B2694647
:10141000FFF7EEFE23E0A120A11BC000814216D2FF
:101420001948B4424268506B01D00D4617E0002ABB
:1014300029D016490978102911D000290FD024226B
:1014400042804722436002700822427007E0012078
:10145000C003201AB04216D2A0B2FFF7B1FE002896
:1014600011D041190A4804220260094B0222403B74
:101470001A6101221A6105231B079A6081600549E0
:101480000160491E0160F8BDA4040000FC020000D8
:10149000C00000500900FFFFAE487047AE487047DB
:1014A000AC487047AD49002008607047F8B5A948BE
:1014B000A84A6030917803460025403B55297DD0ED
:1014C000A74903260D70552191705670FF211573A1
:1014D000D5311182402151820424147555750221A1
:1014E0009175D5750121117655769176D1762321A6
:1014F00011775177014640310C7060245484782470
:101500009484044680343227E77501279F71DE7189
:101510005D7297771D72403215705570914A026066
:101520004260C5600561904A456182608F4A826170
:101530008F4AC2618F4A026288308F4A02608F4AA6
:10154000426002204870642088700A23CB703C20DF
:10155000142708710720087408462030EA1E02701C
:101560004D71642088711E20C8717820608002202F
:10157000207620703220607002202071102060716F
:101580000220A071E671278223750520A074C01F78
:10159000A0754010607572481121008908F076F836
:1015A000E074322060760520A0762820E076267749
:1015B00065770120A077E577204600E016E020302F
:1015C000C82101704570082181700E21C1703C2135
:1015D00001714771877164210181F0214181E1210D
:1015E0008900818120218173C77303E0907F0428E3
:1015F00000D11D72624A1F20107012206149507084
:10160000088D9082488DD082888D10835E48007846
:10161000012816D0C88D50835A48594B2030047C7D
:1016200020339C70407CD870088F908400200B1869
:10163000203314189B7C401C23770628F7D3002006
:1016400006E0AA20E7E7410089180D714D71401CA2
:1016500091788142F7D8F8BD704770473D48002126
:10166000016641660921090381664049816747484F
:10167000142101804180FA228280FF221932C28027
:1016800096220281428164238381C28105220275F0
:1016900042753F4A04239180494251803D49782256
:1016A0008A808B714283FF22C332828355208882D5
:1016B000FF21394891310180418038481E21C18085
:1016C00028210181704710B5254A0A2191702148CF
:1016D00024490166416624498166244981672B4873
:1016E000192101804180FF212D318180FA21C180A3
:1016F00096220281C821418150238381C281042224
:101700000275234B42750F249C8064425C80214B00
:1017100064249C809A7137229A821F4A11805180DA
:101720001E490E22CA801E220A8178214183FF2190
:10173000C3318183084872380221417010BD0020F6
:10174000074A01461318401CC0B219730C28F9D37C
:101750007047000040010000520200001803000022
:10176000FC020000444444444494444422F30000F6
:1017700072011000CDCDCDCD05070A1425426B9620
:1017800074040000C00200102005000038030000AF
:10179000F00200008C030000200400001C03000085
:1017A000FEB5044601291BD0002000F025F825468F
:1017B000A0356946687C0F7A009AB8420ED00C4E6C
:1017C0000021C80013583360801840687060491CBD
:1017D0008029F6D38034019860836F740720FEBDA2
:1017E0000121684601720349072000910190DEE75C
:1017F00000020055B4A80010F8B50025002820D13B
:10180000104E00273078104C012810D0FFF75BFFF6
:1018100001252771FFF740FE222181700A482946E1
:10182000603804F0C9FE3078012803D007E0FFF7E4
:1018300015FFF3E705490120087305480770852067
:10184000E070F8BD27050000DC1B00007C030000F1
:101850002605000070B55720000644690021C943E1
:101860008161A1070FD407F043F8A84DE00702D02B
:10187000287807F08CFA200702D5687807F087FAF5
:1018800007F03BF870BDFF210231016070BDF8B573
:101890009F4C012810D002280ED00D462035032879
:1018A00016D0052807D1A0690C216956000C000448
:1018B00089B20843A061F8BDFFF7EEFD20308079C2
:1018C0000028F8D1E068000C00044F30E060F8BD5B
:1018D000FFF7E2FD20308079002804D1A06D000CD4
:1018E00000044F30A065FFF7D7FDA03040790028F5
:1018F00005D188488169090C09042B318161687A16
:10190000012805D18348C0300169090C090401612F
:1019100020680C216956000C000489B2084320603D
:1019200060690D216956000C000489B208436061AA
:10193000784CC03C61680A20774E2856370C020666
:10194000120D3140384011430002014361602168AB
:101950000B20285631400206120D38401143000278
:1019600001432160FFF798FDFFF796FDE030007D11
:10197000A16B000131400843A063FFF78DFDE0300B
:10198000007D644D40420006040D803DA869304052
:101990000443FFF781FDE030007D40423840000203
:1019A0000443AC61FFF778FDFFF776FDA0305B4C98
:1019B0008079E168000131400843E060FFF76CFD89
:1019C000FFF76AFDA030C079216B00013140084368
:1019D0002063FFF761FDE030017D50484038C16170
:1019E000F8BD70B54E4D0C4601280AD002281CD017
:1019F000032804D0042810D00020FFF7FDFE0120AA
:101A000070BDFFF749FDE8300168A9604068E860F3
:101A10002078214600F02EF8F1E74048403801696F
:101A2000090C0904491C0161E9E757213D480906F1
:101A300008600020420051190B691219538009698E
:101A4000801C090C91800A28F4D335488038C0687E
:101A5000E082D4E710B50021084606F0C5FF2B4907
:101A60000870572030490006C1600B2101612F49E1
:101A7000816110BDF3B5044687002D480F26B602DC
:101A8000C55981B0072C01D2012000E00020FFF7EA
:101A9000B3FE01208002854201D8012000E0002031
:101AA000FFF7AAFE029820308646007AA0421AD09C
:101AB00016480021001DC759AA081548944604E09D
:101AC0008A00BB5812181360491C8C45F8D20022BA
:101AD000FF270137B94204D88B001B181A60491C34
:101AE000F8E770460472029802990078FFF7CFFE7B
:101AF0000120C0073146014357200006816071195B
:101B00004160FF2102310160FEBD0000AC04000015
:101B1000003C0040803E00400FF000FF803F00404E
:101B2000C00000570001010030000080FFFF0000EE
:101B30007CB2001070B5044605460E46C43401213F
:101B40000320FFF74EFF28462030017F491E2176F3
:101B5000407F60762A48E0612A4820622A48606215
:101B60002146284600F01DF832460121204600F0AB
:101B700010F800214035A97770BD10B5C43003229C
:101B8000022100F006F8040001D1FFF735FE2046DF
:101B900010BD10B50B46027001461846FFF721FF35
:101BA00010BD10B50C46036C01222034022B01D36A
:101BB000627201E0002161720521217302216173CB
:101BC0004030807F012802D0022803D101E0227337
:101BD00000E06273FFF760FCA03040781E2801D956
:101BE0001E2003E0FFF758FCA0304078202140B2CF
:101BF000E072081A022800DA0220A07210BD00006C
:101C0000802F00407C2900400C1800401B49012017
:101C1000FFF702FB02F0BEFD03F02CFC02F0F6FD24
:101C2000FFF740FC164803F076FE01F044FD05F096
:101C300011FC144806F04FFA134E144C144D314663
:101C4000207806F0B9FF002802D00020FFF7D4FD6D
:101C5000207807F06DF8094800F00AFF0746FFF703
:101C60001BFC007B0028EAD128780028E7D1002F50
:101C7000E5D000210220FFF7CFFAE0E77C1B00004F
:101C80003803000000BF0010809698007205000025
:101C9000FC02000010B50446090260344D4B1143AC
:101CA000E270CA1A994215D008DC4B4A891813D041
:101CB000502914D0494A891809D110E0FF3AFF3A57
:101CC000033A11D0FF2A05D0FF3AFD3A07D0002091
:101CD000FFF792FD012010BD01F040FBFAE701F093
:101CE000EFF88120E070F5E7FFF7D6FB818C0B2041
:101CF000FEF744FEEEE7F8B5064604466030FF36D0
:101D0000C07800251536302804D00020FFF774FD78
:101D10002846F8BD002740362764204601F057FBCF
:101D20000546012808D00420305E001D01F03CFA71
:101D3000206C401C2064F0E72764FFF7ADFBFF3008
:101D400001304770E4E770B5054604466035E87831
:101D500081280AD083280ED084282FD0852807D048
:101D60000020FFF749FD012070BD832281212DE075
:101D7000802285212AE0204601F04AF9FFF78CFBFA
:101D8000E0300178A06C814202D2842283211DE0E0
:101D900000280FD0FFF780FB848C2879002804D11D
:101DA000FFF77AFBF72141560C1921460B20FEF76D
:101DB000E5FDD8E7FFF770FB818CF7E7204601F0DF
:101DC00027F9A06C0028CED1832284212046FFF77A
:101DD00061FFC8E783810000D0EFFFFFB0DFFFFFA6
:101DE00010B50246A032517B102911D006DC002923
:101DF00003D0012901D0032906D110BD112907D034
:101E0000122905D0132903D00020FFF7F5FC10BDDF
:101E10004900454B20395B5A1377434A921E515A69
:101E20008030C18310BDF3B5044605468034A0352B
:101E3000E18BAA7A81B051434E00A76B00F016F8EF
:101E40003A480761A17CAA7AC901521E1143416137
:101E500061691022D1418161287F761E31040843D7
:101E600002990902084332494863FEBD70B506462F
:101E7000A0360024707B254610281ED006DC0028E2
:101E80000DD001280BD0032806D108E0112814D06A
:101E9000122812D0132810D00020FFF7ADFC707B61
:101EA00001218A1E224E002811D0012815D00328B6
:101EB0001AD0002C21D0012020E041001A4A2039FC
:101EC000921E555E80001B4940380C58E7E7B1630D
:101ED000B263801CFF28FAD970BD0020B163B163E2
:101EE000801CFF28FAD970BD0020B163B163B263D2
:101EF000B263001DFF28F8D970BD0020FFF77CFCFD
:101F000000206A0007E04100635EB3630B19022101
:101F1000595EB163801C8242F5D80021FF28EBD8BE
:101F2000B163B163801CF9E7D8B20010000200551C
:101F300040000055C80400003D2002490004086329
:101F40007047000040020055F8B5054640350021B5
:101F50000246034604462E88703250332034864FA2
:101F6000761E8E468C463E60AE89761E7E60866CFE
:101F7000761EBE60466C856C751B6D1EFD60A68965
:101F80007D4D761E40356E61A668761EAE61A768EF
:101F90006668F61B761EEE610788774E7F1EC03698
:101FA000376387897F1E776387687F1EB7634768BB
:101FB0008668BF1B704E7F1EC036F7631E88761E74
:101FC0002E629E89761E6E629E68761EAE625E6886
:101FD0009B68F31A5B1EEB6213885B1E2B6393896D
:101FE0005B1E6B6393685B1EAB63536892689A1ABF
:101FF000521EEA63A48902462504A032D37C01263E
:1020000036041B06AD1B24022B43FF3C013C23433B
:10201000113355252D06AB60574B147D1C61574B72
:10202000EB6004468034544B267EC03B002E01D02A
:10203000534E01E0524E803E1E63137A012B01D9AC
:1020400001239E461023E35E002B01DD072106E0FD
:10205000002B13D05E1C15D00121DB432382927C20
:10206000090512060A43714609040A4345490A4311
:102070002A616146FFF7D7FE0120F8BD01218C4699
:102080000621ECE701239C46E9E7FEB50146203135
:1020900006460091A036B27A0192426C054652087B
:1020A0008264024680320746044601460292D08B83
:1020B000928B40348018A081F079B2797035821803
:1020C0008A60A089503742008A81606843084B606B
:1020D0002088F279C018821A0A802988A068401ADC
:1020E000A989401E491C07F0D1FA019907F0CEFAE0
:1020F00068604008A860A068019907F0C7FA029AD2
:102100006168928B51432288891840180922B2567F
:10211000696851432A888918401A401E3880A0688F
:10212000019907F0B3FA78602888A9684018B86068
:10213000029AD08B019A50434000B88100996068A0
:102140008860218860684218A189491C484324306E
:1021500000991018486064680019401E214607F075
:1021600095FA717F60434018009948600099707D2E
:1021700088810120FEBD000000010055430300607E
:10218000F1430001C0030030012070470A460346B6
:102190007047FEE7F8B5FFF77FF905464035552053
:1021A00000064068A54EC002A54FC40E01D1306B99
:1021B0003870A4480078012803D121460520FEF795
:1021C0000EFD285D3978401830639F4910208863E0
:1021D000F8BD10B5552000064068C002C10E0320AE
:1021E000FEF7FDFC98491020886310BD022805D039
:1021F000032803D095480021886570479448FAE782
:1022000030B5944C00229300CD581B191D60521C10
:10221000052AF8D38F4B0021403B8A008458D218FE
:102220001460491C0829F8D330BD10B5292149068E
:10223000CA680C239A43CA600222874B012807D040
:10224000022805D0032806D00020FFF7D5FA10BDDC
:102250005A60824801E05A608148086210BD70B53A
:1022600029214906CA680C231A43CA6003247A4A02
:102270004123002808D0032803D00020FFF7BCFA30
:1022800070BD54600B6270BD7648086272480025CC
:1022900040300560132545608560546072480862CF
:1022A0006F487B3008620B6270481061106270BD2D
:1022B000F1B5002082B06D4F019005460646FF4300
:1022C0000090FFF7E9F80446029800216034C94302
:1022D000030007F0DBFF050407090F070C000D469C
:1022E000019707E00D4600E00197009702E000200B
:1022F000FFF782FA5E48007801280AD0514800783A
:10230000012809D05B48007800280ED05A4D5B4E5A
:102310000CE00B26360309E059480078012801D06B
:10232000002503E0574D584E00E0584E46480199AD
:102330008038016000990161464880380561456137
:102340008661552212062168116361685163A16894
:1023500091633D49E36840390B6023694B606369D1
:102360008B60029B042B07D1494B0361436183615E
:10237000D843106350639063A0690861E069086204
:10238000206A4862FEBD70B504460D46062801D29B
:10239000012000E00020FFF72FFAC0353D492B68EF
:1023A000E0000A581B021B0A1A4329235B069A63A2
:1023B000401829494068086070BDF0B5364EB36BCF
:1023C00000218A0092191268491C9B1A0E29F8D321
:1023D00035680246314F2921314C4906A032C030C0
:1023E000BD4205D1F56B2F4FBD4201D1002B0BD063
:1023F000012323705C230B6305231B034B632A49D2
:1024000001600720D077F0BD002323707368D37775
:10241000B368F4681B042402234334692343036034
:102420007369DBB20371B069D0730B63D07B0002B8
:1024300008304863F0BD002011E70000C0010055DE
:10244000CC04000074050000C00300559521001065
:10245000D3210010C000005540000052E57F00006D
:1024600045780000C07B0000C07A00000000F0FF4B
:102470007605000027050000AAAAAAAAAA0AAAAA05
:10248000750500007777777777077777FF0FFFFF7E
:1024900044444444DCB2001080C3002010041020E7
:1024A000200500001306741920202000F8B5F84C10
:1024B00006460F46207806F03BFCF64D287806F0DD
:1024C00037FC4E20805D002811D003230822022112
:1024D0003046FEF78DFC0321207806F06DFB0028C6
:1024E00002D00020FFF788F9207806F021FCEA48A6
:1024F0001821437802783046FEF77AFC6421207870
:1025000006F05AFB002802D00020FFF775F920786A
:1025100006F00EFC04213046FFF70CFB64212878FE
:1025200006F04AFB002802D00020FFF765F9287862
:1025300006F0FEFB2422D949384607F046F8012070
:10254000F8BDFFB5002683B00F463546344618E087
:1025500060000290385A07F04FFB07F0A5FE00908C
:102560000191304607F04CFB019B009A07F0F0FA0E
:1025700007F03AF906460298385AA84200DD0546A7
:10258000641C05988442E3D3284607F073FC07F0E7
:1025900037FB07F089FE07F027F904462421384667
:1025A00007F070F83046069907F03AFF0399086083
:1025B0002046069907F034FF03998860059807F0D4
:1025C00061FC0146304607F043FB069907F028FFFF
:1025D0000399486007B0F0BDFFB585B000200290B8
:1025E000AF4800901446012748000E46A04201DA89
:1025F000012000E00020FFF7FFF8751CA01BC01BA6
:1026000004903EE000200746744201901BE0301920
:1026100081000898405803902819182148430599CB
:102620000858039907F0FCFE0146019807F05EFE8A
:102630000190384607F01EFC039907F057FE07F09B
:10264000B7FB0746641CB442E1DD384607F012FCD4
:102650000146019807F0FCFA1821059A69438C1885
:102660000146E060009807F0B1FE01D2009800E05A
:10267000E0680090E16807F07FFE00D102950498C1
:102680006D1CA842BED8029809B0F0BDF3B583B066
:1026900000207D2500900826ED008248049906F070
:1026A000F5FF47087F0074423846294648430190A9
:1026B0007D487E4960434018019906F0F1FF049976
:1026C000091A00D54942A94203DA26460D460836C2
:1026D0000090641C082CEBDB039879424665039854
:1026E000016003990098C8603802039930438865F7
:1026F00031460A20FEF742F9012005B0F0BDF0B5E1
:102700000446C068616887B0451AA1680022401875
:102710007D21C900029166490978039165490191BB
:102720000321009164498A5E002A0BDB012003909B
:10273000FEF7B2FE018A60680D1AFEF7ADFE008A50
:10274000A1684018642D00D26425FF21F53188422C
:1027500000D908464F4E0590307806F0E9FA00217E
:102760002046FFF7E7F96421307806F025FA0028C3
:1027700002D00020FFF740F8307806F0D9FA0026A2
:1027800020466630049021E01820019970434718D4
:102790007F20C005069029462046FFF777FFE168B5
:1027A0000298814210D020460499FFF77FFE112243
:1027B0003846069B0499FFF7C4FEA06D7861E06877
:1027C0003861E068761C029003982D1805988542C0
:1027D000DAD33A4B324600990198FFF7FDFE1821F3
:1027E000484301994018056980683549884204DDED
:1027F0003449012008706421085529462046FFF716
:1028000045FF3149019806F03FFFFEF745FE45843C
:102810002068DFE6F0B505462C480027007887B031
:10282000012832D07F232946DB0511226631684614
:10283000FFF787FE264C6869214607F0F1FD0099F5
:1028400007F054FDFE1E314607F020FB686121466B
:10285000286907F0E5FD029907F048FD314607F0C9
:1028600015FB286107F0CAFA0446FEF715FE04843A
:102870002E46603630792C46803400282AD0012834
:102880007ED0022801D0002030713846A2E6000038
:10289000A0040000AC040000680300000034004005
:1028A00000401C46409C0000400D0300005A62029C
:1028B000150500007C29004078050000D0040000C8
:1028C0000000C8421D050000040600002A050000A3
:1028D0000000E0405C48008A07F0D4FA696907F01C
:1028E00075FD10D2A07A5849401CC0B2A0728989E7
:1028F0008842CAD36869A8610120A073074653497A
:102900000620087015E05048406807F0BBFA2969B6
:1029100007F05CFDB9D2E07A4B49401CC0B2E072CE
:10292000C9788842B1D30220A07301274748042107
:1029300001700120464930710870FEF7ADFDA030EE
:1029400064248471FEF7A8FDA030C471FEF7A4FDD5
:1029500080214182FEF7A0FD052101753D497820C7
:1029600088803D48007800288FD0FEF795FDFF2134
:1029700001314182FEF790FD06210175032000E040
:1029800002E03649487580E72F48806807F07AFAF8
:10299000296907F09DFD50D22B48408A07F072FA52
:1029A000696907F095FD48D2A0892749401C80B28B
:1029B000A081CA892A49904202D3887E002805D086
:1029C0001A2008560028DEDD00203AE00020307191
:1029D0001F49A0730870A081FEF75EFD402141826F
:1029E000FEF75AFD042101751E481F4D007B00288B
:1029F00011D0012028701749782088801648007867
:102A00000028C0D0FEF748FD80214182FEF744FD3A
:102A10000521017539E7FEF73FFDA030642484717C
:102A2000FEF73AFDA0301E21C171022028700F4927
:102A3000012008700748848027E7A0890028A2D0D9
:102A4000401EA08121E7000068030000150500007A
:102A50001D0500008C03000026050000380300005F
:102A6000C01400007C0300002705000028050000BA
:102A7000F0B59DB0054600F01BFE04F0C1FC924885
:102A800012210388027A1F2002F00EFD02F07FFE61
:102A90008E488F4C817D00291AD0C07D002817D028
:102AA0008C4812231F2221790BAE0FC687492C2296
:102AB00014396846FDF7C6FD844820380EC80FA8B3
:102AC00002F075FE814838220FA92038FDF7BAFDC3
:102AD00001F048FE01F0BCFE7F4802F0EAF87F4EAC
:102AE000014630707E4A7C4802F02FFB3070014670
:102AF0000122794802F082FC307077482C21415E37
:102B0000406803F0A7FA77487749007809780843C6
:102B100001D103F011FD01F015FA74490646086869
:102B2000401C086000210420FEF75BFF704A7148DA
:102B3000137800277049002B0ED0177000780128F9
:102B400005D0002000F033F806466F642CE00F70CB
:102B5000284600F06BF8F7E7684A1278012A02D09D
:102B60000078012809D10878401CC0B20870642898
:102B700001D2002601E0642008702079604A614992
:102B8000002808D00878002801D008280AD9207920
:102B90001070012007E017700F704F480D21203092
:102BA000C17401E0401C087030461DB0F0BDF8B59E
:102BB0000446FEF775FC0146FF31FF30002301316A
:102BC000133010251426504F0B74002C19D00022FE
:102BD00012E024244D4F5443E419678B0780A78BE0
:102BE0004780E4888480837142720572C6710C7CD0
:102BF0000A30641C0C74521C434CA4789442E8D8EC
:102C000010E000220BE003804380838083714272D6
:102C10000572C6710C7C0A30641C0C74521CBC78A2
:102C20009442F0D8087C497C4018F8BD70B5044641
:102C3000FEF736FCC11D0022F9310A742546102228
:102C4000FF354A744135698B0123022921D00146A1
:102C5000FF31022281314A801A22AA5E632A28D0DB
:102C6000652A29D06D2A29D0772A29D04B800021C6
:102C70004A008B001219FF321B186132FF33813377
:102C800055889D80D289491CDA800629F0D301201D
:102C900070BDFF30E11D8130F93143808A8AFF34F5
:102CA000828021342288C280C98A01816188418161
:102CB000EDE7FF22033204E0154A02E0154A00E086
:102CC000154A4A80D3E70000F0020000AC1600006D
:102CD000C0140000C4160000AC0D00003405000054
:102CE00038050000290500002A050000180300002F
:102CF0005405000063050000620500006105000046
:102D00001A0500001B050000FC020000DC14000096
:102D100002020000020300000204000010B50120BE
:102D2000FF23532109064B6004220A624B620022F2
:102D30008A62CA620B630A62FD244C604C62022400
:102D4000CC608C618A62CA620B638C68CB620A6356
:102D5000896810BD10B504460021FEF747F8FEF75C
:102D60009BFBC07E002802D02046FFF7C8FC002154
:102D70000720FDF703FE012010BDF1B584B0EE4839
:102D8000049E00784036012806D00A27B07BEB4D20
:102D9000002817D0022413E06427F7E7287805F00D
:102DA000C7FF00232A7819460498FEF778F83946B9
:102DB000287805F001FF002802D00020FEF71CFD56
:102DC000641EEBD2FEF768FB007E69460870019036
:102DD000FEF762FB007D694648700390FEF75CFBDE
:102DE000017E727F91400176FEF756FB017D727F76
:102DF000012489180175FEF74FFB007E7843D04F00
:102E000000902EE00126287805F092FF387805F032
:102E10008FFF002C00D10226287805F089FF0323BC
:102E2000082202210498FDF7E3FF01232A780021FC
:102E30000498FEF734F82878009905F0BDFE0028C4
:102E400002D00020FEF7D8FC31460498FEF772FE4F
:102E50003878009905F0B0FE002802D00020FEF777
:102E6000CBFC641ECED2FEF717FB01990176FEF76C
:102E700013FB0399017503210620FDF77FFD012057
:102E800005B0F0BD70B50546FDF722FF0321052012
:102E9000FDF774FD2846FFF75DFFA94C207805F08B
:102EA00047FF00212846FEF745FE0A21207805F05D
:102EB00083FE002802D00020FEF79EFC012070BD9A
:102EC00070B505469C480078012820D00A24284681
:102ED000FDF7FEFE03210520FDF750FD2846FFF714
:102EE00039FF974E307805F023FF00212846FEF782
:102EF00021FE2146307805F05FFE002802D0002038
:102F0000FEF77AFC2846FFF738FF012070BD6424E5
:102F1000DDE70120704770B5044603210520FDF769
:102F20002DFD874D287805F003FF00212046FEF790
:102F300001FE0A21287805F03FFE002802D000207B
:102F4000FEF75AFC2046FFF718FF012070BDF3B5CD
:102F5000074683B020300290407F0190794890244A
:102F60000578012605213846FEF707FE8A2D18D080
:102F70000ADC112D21D004DC002D1ED0102D1DD116
:102F80000CE0122D1AD118E028468B38030007F008
:102F90007DF9070A150C0E1015121500002426469F
:102FA0000CE0694C0AE0694C10E0694C0EE0694C99
:102FB0000CE0694C0AE0694C08E00026852D12D02F
:102FC0008C2D10D0002D0ED0102D0CD00120009093
:102FD00002980121037FA0B289074118B86B019ABA
:102FE00080B2FDF782FF0621386C06F04FFB012905
:102FF0000AD1012E08D1FEF74FFA007B002803D139
:1030000000210220FEF708F9049805F099FE37E741
:10301000F8B504460546484840350078012840D0B8
:103020000A273E4603210520FDF7A8FCA87B434D57
:10303000002811D0287805F07BFE03230822022106
:103040002046FDF7D5FE3946287805F0B5FD002865
:1030500002D00020FEF7D0FB287805F069FE40483A
:103060000221437802782046FDF7C2FE01232A7828
:1030700000212046FDF713FF3946287805F09CFD16
:10308000002802D00020FEF7B7FB03210620FDF741
:1030900075FCFEF701FA206C294F2A4D002806D155
:1030A00002E064273E46BDE72878082808D131466B
:1030B000387805F081FD2B4801782046FFF747FF5F
:1030C000387805F035FE2848007805F031FE0321F8
:1030D0002046FEF72FFD24483146007805F06CFDB0
:1030E000002802D00020FEF787FB387805F020FE8C
:1030F00029782046012220301C4D852902D08C29B8
:1031000007D00EE00092037F427FA06B184980B287
:1031100005E00092037FA06B012280B22946FDF7F3
:10312000E4FE204624222946663006F04EFA206C42
:10313000401C20640120F8BD74050000A0040000BC
:10314000AC040000FC0200000C1800007C29000008
:10315000681C00006036000020350000C42000001C
:103160006803000072050000AD0400000034004058
:103170009000004010B501460120FFF705F810BD92
:1031800010B50146042000F017F810BD10B5014637
:10319000012000F011F8002010BD10B501460320F9
:1031A00000F00AF8002010BD10B50146012000F023
:1031B00003F8002010BD0000F3B583B00546FEF70C
:1031C0006FF929243A4F00266406012D0BD0022DF9
:1031D00009D0032D07D0042D61D00020FEF70CFB91
:1031E000012005B0F0BD3348049940690090324891
:1031F00006F04CFAF16B0191316C02912F4921627A
:103200002E49503121622E490E620F22CA6228498E
:103210000E60A6602B49F1632B4931642749523176
:103220002162002100BF00BF00BF491C3229F9D331
:1032300026492162012767621E4B58619861072267
:103240001A61032D17D000990498FDF73FF9276202
:1032500066620198F0630298306415481C49016069
:10326000174804210162022DBAD101F0A8FA1948C9
:103270008777C777B4E704990098491C0BD01349A6
:10328000216230BF2662512109060E6058619861A3
:103290001A61A760DBE70D4909312162F2E77D2061
:1032A00000013E60A061032060610120606197E73A
:1032B00000E100E000E000E050C30000A47B00005B
:1032C000800000520101000005010000F67F0000AF
:1032D000E1200000BC1B0000F1B584B0FEF7DCF873
:1032E00004466034FEF7D8F82030067A0025FEF751
:1032F000D3F82030C7792068009060680190A068FA
:103300000290A0690390FEF7C7F8FF3001304189B1
:103310000498FFF7BBF9FEF7BFF820300572FEF7FF
:10332000BBF82030C571256065605448A560A06178
:1033300000210720FDF722FB0398A0610298A060FE
:103340000198606000982060FEF7A6F82030C771F1
:10335000FEF7A2F82030067205B0F0BD70B5044645
:10336000FF3405461534FDF7B3FC6821204606F00E
:103370008BF94348606342482430A06340482438B6
:1033800020644048E063FEF787F8FF300130817920
:10339000FF2059304153FEF77FF8FF300130002104
:1033A000C1712846FFF798FF374C207805F0C0FC24
:1033B00000212846FEF7BEFB0321207805F0FCFB28
:1033C000002802D00020FEF717FA012070BDF8B5E2
:1033D0002D4C06460027207805F0AAFC2B4D2878B6
:1033E00005F0A6FC03210520FDF7C8FA00232A7882
:1033F00004213046FDF732FD0321287805F0DCFB7F
:10340000002802D00020FEF7F7F901210620FDF781
:10341000B5FA306C052801D23846F8BD0521304692
:10342000FEF788FB0321207805F0C6FB002802D0B8
:103430000020FEF7E1F900210320FEF7D2FA304622
:1034400005F0FBF8050017D011490120087011495B
:103450000870FEF721F83446FF34FF304134013064
:10346000618BC1711A200C49205E8862FEF714F846
:10347000018A3046FFF70AF92846F8BD22F5000018
:10348000003400400C180040AC040000A004000010
:10349000630500005405000074040000F8B50446FC
:1034A00005468034208A774B1022C11A764F0026B9
:1034B000984279D009DC7549401864D0012854D06D
:1034C000022874D003280DD154E00A290BD00B290F
:1034D00002D012297ED17BE0608A05287AD13A7029
:1034E0000120387376E06A486A490278012A07D0D9
:1034F00006700E704035A889674F00280DD011E086
:103500000E700670FDF7C8FFFF30013001214170D9
:10351000FDF7C2FF162181705CE0FDF7BDFF203092
:10352000407A3870FDF7B8FF203001214172A88938
:10353000401C80B2A8810A2801D2002011E0FDF7CA
:10354000ABFF203039784172AE810C2005F05FFE70
:103550000020C043FFF71AFEFDF79EFF1621817081
:103560000120002836D10120F8BD7D200001FFF7A1
:1035700007FE2FE0608A06282CD8082038704749BB
:10358000608A088026E02846FFF7C8FB3873FF21D1
:103590005320000641600422026241628662C662D4
:1035A000016317E000E002E003F008FE98E7102056
:1035B0003870284603F07AFCF860FDF76DFF16219D
:1035C00081700121284602F0F7FF1020387001E0D9
:1035D000608A60832682C6E710B50446FFF75EFF67
:1035E000FDF75AFF807855280FD0FDF755FF2C487E
:1035F0000178012905D00021204602F0DDFF0120DD
:1036000010BD002101700121F6E7204600F001F80D
:10361000F5E7F8B506460027FDF73EFFC07E002817
:103620002CD03046FFF7F6F81E49012806D008785E
:10363000012823D11C48007900281FD130460025DD
:103640008030C572857285811648344600786034B2
:1036500000280DD015480078012810D0FEF733F867
:1036600025710127FDF718FF222181700D48057093
:103670003946304602F0A0FF8520E070F8BDFDF726
:10368000EDFFF3E705080000FC020000FFF7FFFF75
:103690006105000063050000EC04000078050000EF
:1036A0008805000028050000C01400002705000060
:1036B000704700007047FF4923200870FE4916201C
:1036C00008707047F8B5FD48002602460188403270
:1036D0009170374606803546F84A680084181020F5
:1036E000205E002822DDE18E032904D2491CE186F8
:1036F000E08327821BE01E22A25E811A09B2002904
:1037000001DA494209B2642348435A43101864312C
:1037100005F0C6FF00B2E949E08320820A88521C06
:103720000A80864203DA06464D8000E0E7866D1C7B
:10373000EDB2052DD0D3F8BDFFB58E46E049E24A83
:103740000B79E04981B009784900525A022B3DD0EB
:10375000154624214843DD490023461803991A20C1
:10376000305ECB5EC11A00D5191A8C4604991C2410
:103770000027345FCF5FE11B00D5391B6446641816
:1037800011198C464F107146C90730D0504363431E
:10379000C018C019614605F083FF03990022088014
:1037A00004991C20305E8A5E684362438018C01909
:1037B000291905F075FF0499062208800A9800234C
:1037C000B25EC35ED01A05D4014604E051008AB24D
:1037D0008DB2BEE7991A6431002800DA981A58436E
:1037E00064235A43801805F05BFF0A990880002083
:1037F00005B0F0BDF0B50746B14885B0406901900D
:10380000B348B44C0290208D1F2105F03FFFB24D0C
:1038100046086E80608D112105F038FF4008A880B1
:1038200003903121AA4805F02DFF30204743AB48D3
:103830003C18A1480627E75F01783846009105F05B
:103840002FFF287000994843381A687001202821FA
:10385000615EA34F8200D2190223D35E1A118B1A24
:1038600000D5531AB34202DA401E287003E0401C10
:10387000C0B21F28EED901202A22A25E8100795E03
:103880000B11D11A00D5991A039B994202DA401EF6
:10389000687003E0401CC0B21128EFD96A7829781B
:1038A000D31E5CB2CB1CD21CC81E40B25BB252B25B
:1038B0009E469446002800DA0020002C00DA0024FE
:1038C0007C4A1278521F964501DD52B29646009A04
:1038D000921F944501DD52B29446C2B2091A0320E8
:1038E000401AC3B220E07C49E0B249780D1B0321A5
:1038F000491BDD00ED1AC9B200950FE06E4D2D7821
:1039000055432D186E00019D401CAD5B009EAD100F
:103910007718029E491CF555C0B2C9B26045EDDD6D
:10392000521C5B1CD2B2DBB27245DCDD60E7F7B53E
:103930006C4886B00078002802D0002009B0F0BDA5
:103940006948644CC17D0591007E0390208D0290F2
:1039500080009B2105F09AFE0746608D0490800050
:10396000552105F093FE064606980025455F079809
:103970000024045F5C4A19201056059900900298B3
:103980004008019000297CDDBD4220DAFF21E81BC0
:10399000233148438011C01905B2E321284605F0C0
:1039A0007FFE0006C10D4C48801D405A0090281A29
:1039B00047B20621384605F073FE089940B28906E1
:1039C00034D51937192F31D2009908182DE00298F3
:1039D000401BB84207DA059AC01B50438011029978
:1039E000C019081A21E0E321284605F059FE000617
:1039F000C10D3948801D405A0290281A47B206214D
:103A0000384605F04DFE089940B2890605D51937AC
:103A1000322F02D80299081805B201990098491B63
:103A20004843019905F03CFE401905B22E491A277A
:103A3000CF5728490398498D4908009100287DDD1A
:103A4000B44225DA0399A01B48438011801904B2BF
:103A5000A221204605F024FE0006C10D1E481830A4
:103A6000465A0621A01B47B2384605F019FE0899B0
:103A700040B289067DD51937192F7AD2301877E0F0
:103A8000FFE7BD42D2DB0298C01BA842C5DACDE7F2
:103A90000498001BB04240DA0898800601D5E41E65
:103AA00024B20498039A011B891B51438911891977
:103AB000401A1BE04505000046050000D416000032
:103AC000C01400001D05000020040000DC140000EC
:103AD000620D0000AC0D0000EE040000501100006B
:103AE00012B300105C0500008C03000004B2A22198
:103AF000204605F0D5FD0006C10DFE48465A0621B8
:103B0000A01B47B2384605F0CBFD089940B28906A4
:103B10002FD57F1E182FB1D92BE0A221204605F00A
:103B2000BFFD0006C10DF348405A0190201A46B26D
:103B30000621304605F0B4FD40B200E00DE00899E2
:103B4000890605D51936322E02D80199081804B213
:103B500000980099001B784307E0B44209DB049801
:103B6000801BA04205DB081B784305F099FD001976
:103B700004B20698058007980480DEE6FFB587B09A
:103B80000D4614461E46119F079806F073F90090E3
:103B9000284606F06FF90190204606F06BF9029076
:103BA000304606F067F90390109806F063F9049028
:103BB000384606F05FF90590BD4210DD1098001BF5
:103BC00006F058F90546B81B06F054F9294606F0E8
:103BD0003FF80746009906F023FC01990FE007988B
:103BE000201A06F047F90746701B06F043F93946DC
:103BF00006F02EF80746049906F012FC059906F027
:103C000075FB06463846029906F00AFC039906F051
:103C10008BFC05467800000E0FD00121384606F0D7
:103C200035F904462946304606F08AFC214606F05E
:103C30000FF806F0BDF80BB0F0BD2046FBE770B5FD
:103C400004AC70CC0022002802D01E2807D00CE063
:103C50000020205E002800DA22801A8005E0002083
:103C6000185E002800DA1A802280002908D0102966
:103C700005D10020285E002800DA2A80328070BD3D
:103C80000020305E002800DA32802A8070BDF0B556
:103C90009446994A0025994F54692B46FE56CA5CB2
:103CA00036187600A65F5B1C564375195BB2042B71
:103CB000F4DB4200A25E0B795A4355190523FE1826
:103CC000203E1F22B25616187600CA5CA65F5B1C07
:103CD000564375195BB2092BF1DB6046054128B2EA
:103CE000F0BDFFB5064689B00020079084481F4606
:103CF000017830460D4605F0C9FC04466843301A89
:103D000085B2701E0A990090701C019000291FD086
:103D10007A4A0321515604238919D35676489A19B1
:103D20004069009B7600865F1B040496019FDB0BB5
:103D30001204C35A6E46B381D20B89B2825A3284BE
:103D40004900415A3F043183F90B405AB08234E0B4
:103D50007A7A39463046FFF79AFF049000987A7ACB
:103D600080B23946FFF793FF6946888101987A7AD5
:103D700080B23946FFF78BFF6946888260487A7ABD
:103D800000783946301A80B2FFF781FF6946088310
:103D90005B487A7A00783946301880B2FFF777FFAF
:103DA0006946088405AA03A908A86E4607C606AB9B
:103DB00069B260B2049AFFF742FF0B98514EC007F8
:103DC0003ED06A461821515E2020049B105E994225
:103DD00003DD0B46814200DA0346994211D183424A
:103DE0000FD1A00080190621415E1298002C0160BD
:103DF00004D045480078401F844243D101200DB0D3
:103E0000F0BDA20097190A22BA5E00920190062224
:103E10000220BA5E385EFFF7B1FE002801DA00200A
:103E200003E03A49884200DB08461299002C0860FA
:103E300004D035480078401F844201D1012007900A
:103E40000B98800740D568460C21415E1422049BE4
:103E5000825E994203DD0B46914200DA1346994295
:103E600012D1934210D1A80080190421415E139809
:103E7000002D016004D022480078801FA84201DC98
:103E80000220BCE70020BAE7AC00A0190827C75FF2
:103E9000019200970422825E305FFFF76FFE0028D8
:103EA00001DA002003E01A49884200DB0846139932
:103EB000002D086004D012480078801FA84203DC5F
:103EC0000798801C00B20790079898E77CB50D46CC
:103ED000242148430F490B4B41181F20085630211D
:103EE00048430D4901924418164600958833E088EE
:103EF000032213E006050000C01400003D05000089
:103F00004605000012B300104505000011760000C0
:103F100084410000DC140000501100000021FFF774
:103F2000E0FE002805DB012803D0022801D0032889
:103F300007D101960095E088FE4B03220121FFF78F
:103F4000D0FE7CBDF0B5BDB00020079001200290EE
:103F500007200E90FDF7A4FA04460990FF34F648B6
:103F6000133427460078643701281ED0F3480078C0
:103F700001281AD0F2480078002817D0002018A98C
:103F8000087348730190EF48069001982421484334
:103F9000ED4903900D5AFF200230054204D0680617
:103FA00006D54821A94303D00FE200203DB0F0BD63
:103FB00018A8007BE5490A908978884205D34021FA
:103FC0000D43E14803994552FFE1E1492846084283
:103FD0000DD0DD48039930AA0818418811858188E1
:103FE0009185C1881186203000780290ECE0D64996
:103FF0000398062246181F20305630210B90484364
:10400000D4490F904018009005904089D249C0B221
:1040100007900598825E0D92097810460C910891E0
:1040200005F03EFBC0B2089904900D9A4843101A5F
:10403000C0B208900598C74982780F98085C101A9A
:10404000C0B284460598C64AC17840781278081AEA
:10405000C1B2C2488018027D68050FD57069BA4B9D
:10406000904202D2401C7061AFE101208002854382
:104070002020054303981D5201200290FF2021308B
:10408000054219D1B7480078012815D004980028B6
:104090000DD0B54A1278921F904208DA089800288D
:1040A00005D00E9A0C98821A089882423EDC60462F
:1040B00005283BD2052939D23BAA3AA90198FFF736
:1040C00005FF002825DA00988089400715D5049857
:1040D000984A8000883A81180620085E0699497D32
:1040E000084130A908850898800081180420085EDE
:1040F0000699897D084130A905E0009830A9008D16
:1041000008850098408D8885E80516D50220029024
:1041100013E0069830A9427D2820085E10410885EA
:104120000698827D2C20085E1041ECE7009830A9AB
:10413000008D08850098408D88852A463BA93AA8BD
:10414000FFF7F5FB009841698548007842008348F5
:10415000805E091A09114000081800B230A90886CB
:10416000FF2800DDFF2008867069012810D0B08983
:1041700030823089B081F08970827089F0817088D6
:10418000098D081A308130A9B088898D081A70818C
:1041900030A8008D708030A8808DB080A80613D51F
:1041A00072480078012803D10B9840B2FFF722FB38
:1041B00030A8008D708330A8808DB08330A8008E29
:1041C000F0802036029830705F48039930AB0E18AB
:1041D0001A21715E2820185E8C46081A1C212C2298
:1041E000715E9A5E40438A1A5243821800202B0760
:1041F00001D5102021E0AB0601D504201DE0029B73
:10420000012B1AD1564B55481B78C01820308079A5
:104210004043904208DB2120805D400704D5604682
:1042200030AA10859185E8E73CA800903BAB3AAAFC
:1042300029460198FFF780FA082030AA2821515E0C
:10424000002901DA002111853E4913462039282230
:10425000098D9A5E914201DC491E19852C21595E17
:104260001A46002901DA0021918536492C2220398D
:10427000498D9A5E914201DC491E99853C498A78B4
:10428000002A02D1CA79002A31D01A8D0A990C234A
:1042900059431BABC9184A8030AA918D18AA127BCA
:1042A0000C235A431BABD21891803FE007996AE078
:1042B000022100E0012118AA127B0C235A431BABF8
:1042C000D218D17218AA127B0C235A431BABD218F6
:1042D0000199117318AA117B491C1173290765D51F
:1042E00000207083B083F080203630706CE042078D
:1042F00002D50A7A002A09D0C20602D58A7A002A93
:1043000004D00207EAD5497A0029E7D11A8D0A9923
:104310000C2359431BABC9184A8030AA938D18AAA5
:10432000117B0C2251431BAA89188B8030AA3021A3
:10433000515E1FE09AB300106105000063050000A4
:1043400018050000CC0D0000DC140000FC02000089
:104350000C0A000050110000460500003803000060
:104360001D05000014050000450500005E05000065
:104370007C03000018AA127B0C235A431BABD218F3
:10438000D180002992D118AA127B0C235A431BAB6F
:10439000D218118118AA127B0C235A4302211BAB9D
:1043A0000143D2189172E90584D581E730A9098DBE
:1043B000718330A9898DB18330A9098EF1802036AF
:1043C000029931700221084370700198401CC0B2FC
:1043D00001900C2800D2D8E5A54D2879002811D0ED
:1043E000A44900200A8D1BAE08E00C214143891925
:1043F0004B88D31A5B1E401C4B80C0B218A9097BA6
:104400008142F2D86879002811D09A4900204A8D5B
:104410001BAE08E00C21414389198B88D31A5B1E1F
:10442000401C8B80C0B218A9097B8142F2D8E87881
:1044300000280FD000201BAB08E00C214143C91815
:104440004A888D884D80401C8A80C0B218A9097B9B
:104450008142F2D8099D0026FF35013586482E7429
:104460000078002803D018A80021027BC5E083480B
:104470000078012802D0022832D053E018A9097B25
:1044800000208C4617E00C2102464A431BA9511814
:104490004B888722D20093420BD88988FF22E132D1
:1044A000914206D32D225201914202D8734A022131
:1044B0001170401CC0B28445E5D8704800780228CD
:1044C00030D1012018A908738720800010A9C88561
:1044D0000F208001088618A9887D102108431FE05D
:1044E00018AA127B0021084694460AE00C230246D3
:1044F0005A431BABD218927AD20600D40121401C39
:10450000C0B28445F2D8012318AA13738720800013
:1045100010AAD0850F2080011086002910D0062017
:1045200018A988756A221FA96846FCF78BF81BA892
:104530000FC803F07AFD51480078022809D017E02F
:1045400018A9887D1021084318A988754B490B705C
:10455000E8E7FCF7A5FF0146FF3181310322009116
:104560004A8048484649006803F0D5FD0099888094
:1045700018A9097B00208C4621E00C2102464A4301
:104580001BA951184A8822808A8862808A7AD306B9
:1045900001D5A68002E03C4B1B68A3800B89A37168
:1045A000E271CA7A2272354A1278022A0AD0097B4D
:1045B0006172297C0A34491C401C2974C0B28445AC
:1045C000DBD81CE06672F4E70C200B4643431BA8C3
:1045D00018184388238083886380C388A380038955
:1045E000A371837AE371C37A2372007B6072287CA3
:1045F0000A34401C491C2874C9B28A42E4D8FFF727
:1046000061F8224B6E74002021494200511810229B
:104610008A5E002A0ADD1A5C402422433A70102286
:104620008A5EFF2A00DBFF227A7008E02A228A5E77
:10463000002A08DD1A5C202422433A707E706A7CCE
:10464000521C6A74BF1C401C0A8AC0B24A850528E5
:10465000DAD30F484188818308480078022803D1C3
:10466000687C1021084368741020285E9EE40000D6
:10467000FC020000AC0D00005C05000029050000F4
:1046800000BF001058050000FC1C00000CB3001017
:10469000D4160000FEB5374800901620844612213B
:1046A000354801910078364D410034480818408A59
:1046B00000230290304C00985900247808180022FA
:1046C0001146A646660005E04C00045F002C00DDA4
:1046D000A2186144A942F7DB02998A4216DB2749F6
:1046E0007418E6887144897B56430E4100210F46B9
:1046F0000AE04A00845E002C05DDB44202DBA41B04
:10470000845200E087526144A942F2DB5B1C0198AD
:10471000DBB28342CED3FEBD30B51A4A10780028F2
:1047200001D0401E17E01448174C0078174B0028A2
:1047300016D017480A21415E0F48007840007829BA
:104740000BDDFF2591356943185E8912814200DC3B
:10475000014621800420107030BD185A208030BDE1
:104760001888FBE700B5FFF7D7FFFFF793FF00BD01
:1047700070470000D82900401D0500001C03000000
:10478000AA020000210500001E05000038030000F9
:10479000C416000000201549154B0870487001220E
:1047A0001A70144A1080144A1080144A10708870CD
:1047B000C87008714871887111490870704710B548
:1047C000FFF7E8FF0F48002181738172C172818178
:1047D00000F050FE00F01AF8FCF764FE0A4801F001
:1047E0009AF8FEF768FF02F035FE10BD16050000CE
:1047F00024050000940D0000480500005C05000041
:104800005D050000FC1B000038030000FE48FD4968
:104810000160FE49C160FE490161FE494161FE49F6
:10482000C161FE498161FE49CA88028509894185C5
:104830001F2120304174112181740421417581753B
:10484000F849F94816218180F6495C3101607047CA
:1048500070B5F54AEC4806CA82604160F349F44BF2
:104860000978F74C4A00D21892888285F14A12885A
:10487000C285F1484118E4480A7920300275EF4AB0
:1048800013780122012B0DD0EE4B1B78002B09D1A0
:10489000ED4B7D261D683601B54207DD0A255D5FBB
:1048A000782D03DAC2740021217002E08979C17485
:1048B00022703C21017470BDF7B5E8B00021009171
:1048C000E248049103910291019105910078144608
:1048D0000890012807D1DE480079002803D1208202
:1048E000A0826082E082002030214143689A0791D3
:1048F00089188A89D2073DD04B89450046AA53536F
:104900004D6983003AAA0695D550CE69C5000AAA1A
:1049100052198F6917605660B44622AE0B6A75193A
:104920004A6A2B606A608E785CAD2E54CE7862AD98
:104930002E54689E079D9E46765D5FAD2E544E7840
:1049400065AD2E54009E069DAB19049D00937D1904
:10495000039B66465E410396029E73460495019D45
:104960009B196A41029301924A890599511889B2AB
:10497000059103E00021430046AAD152401CC0B279
:104980000C28B1D36999002089788E460CE069998A
:10499000820051184A794CAB521E1A54097954AA14
:1049A000491E1154401CC0B28645F0D8002166E073
:1049B0004CAD54AB685C5A5C90425ED0470046AD4B
:1049C000BC46EE5B5300EF5AF6196746EE530026DD
:1049D000EE523AAB87009600DD599E59AD19DD5174
:1049E000C500AC460AAB63441F685E68D3000AADDD
:1049F0000693EB181D685B687F195E410AAB634440
:104A00001F605E6022AB63441F685E68069B22AD38
:104A1000EB181D685B687F195E4122AB63441F6021
:104A20005E605CAB1D5C9E5CB54200D21E5462AE03
:104A3000355CB35C9D4200D233545FAE355CB35CF1
:104A40009D4200D9335465AD2B5CAA5C934200D9DA
:104A50002A54481CC0B24CAA54AE0CE0155C735CDE
:104A60009D4201D1555C1554355C9D4201D1535C8A
:104A70003354401CC0B28645F0D8491CC9B28E459B
:104A800096D800252580734860802846632246AB6F
:104A90003AAE4100595A00290BD02788B94201D9B2
:104AA000218002466788B94203D261808100715833
:104AB000A160401CC0B20C28EBD3632A5AD09000EE
:104AC0003058606062A8805CA0735CA8805C207332
:104AD00065A8805CE0735FA8805C6073009A0399AE
:104AE000D317049804F039FD474F20377A7D04F03E
:104AF00021FD06B22682009A0199D317029804F08C
:104B00002CFDBA7D04F016FD00B26082059921806B
:104B100000993D4A6160002E01DA258204E0118D82
:104B20008E4201DB491E2182002801DA658204E001
:104B3000518D884201DB491E61820898012819D1F4
:104B40001420205E002806D0C100081A1021615EE2
:104B50004018C01020821620205E002806D0C10018
:104B6000081A1221615E4018C0106082208AA0825B
:104B7000608AE0826BB0F0BDF0B5374F0023844609
:104B80005C1E3D787E7811E0E8188000C0194079FD
:104B9000884209D1E81844B2A000C0190623C35EB8
:104BA000934205DAC28003E05B1CDBB29E42EBD885
:104BB000002C14DAB8781E2811D28000C019C280E7
:104BC000BA7860469200D2191071B8788000C01986
:104BD00041717878401C7870B878401CB870F0BD8E
:104BE00070B530256943C46830396118048954436D
:104BF000E418CC800024E4430C8101248C818A7069
:104C00000A702BE0600E0000AC0D00005011000097
:104C100090130000A813000040140000C01300000F
:104C2000FC0200007C2900402C0500001D0500004E
:104C3000380300001E050000600300001A05000094
:104C40001405000023050000C4160000290500001B
:104C5000C01400002F750000E40D00000A71CB7035
:104C60004B704B710825455F5E0055436D00AD19D3
:104C700040680626405F9500FA4A4861AD18AE5F6D
:104C800005467543EE179B009A18CE6104238D618B
:104C9000D35E5843C2174A6208624C8170BD00223D
:104CA000F149012803D0887808704A7070470A706B
:104CB000FBE7F0B505460089A5B0C0B210902846C4
:104CC0002030817C00268A1CD2B20D922A680024F2
:104CD0005118C91C1D916969119129690C91E2490A
:104CE0008E70417C2091807C2190BB212868FBF74D
:104CF00047FC002081002A69401C56506A69C0B2F6
:104D000056500628F6D300203021414300220C31B2
:104D1000EB68401CC0B25A520C28F5D3002082E147
:104D200010996A6848434000101822900C99119815
:104D300011910C900020014683000C9A401CC0B2D7
:104D4000D1500628F8D30D990A9848431D99491E59
:104D500040181B9000205EE11B982E22401C1B90E7
:104D60000898AA5E4100229809180020085E824235
:104D70007EDC089B119AD3185A78002A78D1109AB1
:104D80001E2752000F928A1A1646203EF75F87426E
:104D9000EEDC0026965F8642EADC0226965F8642BB
:104DA000E6DC0A46203A1E26965F8642E0DC0222B6
:104DB0008A5E8242DCDC01269E700F9A1E27521802
:104DC0001346203BDF5F8742D2DC089F0C9BDE55F9
:104DD0000F9BC95E8142CBDC089B0C99C9184E70B1
:104DE0000223D35E8342C3DC8E700C2C7DD2601C08
:104DF0002390C0B209903021E8684C430419002088
:104E00000B90A9690A980870E969089808701B99BD
:104E1000099808700998FFF742FF2846089B0A9AEC
:104E20000999FFF7DDFE802E01DB0B96E5E0A9690D
:104E30000B981D9B095C1291E969095C1C91129900
:104E400010980D9A48431C99400049004018696821
:104E5000401812994A431C99591851180022825E31
:104E60000E920B9A521C12B20B920F9A831A00E008
:104E7000CEE01718821E801C039000939C460D986C
:104E80004B1E0292081A0D9A01978A1815931390D7
:104E900063469B1E0493491C14921691BB1E0593F6
:104EA000411E63469B1C06931791BB1C511E401C60
:104EB000521C199000201A920793189107461F90D0
:104EC000B80013A91E9008580178002910D009983D
:104ED00081420DD01E9A684680580022825E0E984C
:104EE000824200DD0246099800E08DE0FFF744FEB3
:104EF0001E98694608580021415E0E98814208DDDF
:104F00001E9813A9085801780998814201D0012000
:104F10001F907F1C7FB2082FD2DB1F9800286CD116
:104F2000820013A989580B78002B62D16B469B58DD
:104F300000221E939A5E2E23EB5E9A4259DB0E9B53
:104F40009A4256DC099A0A70484900230A5C129971
:104F5000511849B2AA698C46915545490A5C1C9979
:104F6000511849B2EA698E4691551E996269CB5E25
:104F7000761CD118616161468A003A4900235218B3
:104F80000621515E1E9AE769D35E36B25943A36982
:104F9000CA17C9187A41E261A16171468A00314994
:104FA000002352180421515E1E9A676AD35E59434A
:104FB000236ACA17C9187A41626221626189022292
:104FC000491C6181A2566146624500DAA170002148
:104FD00061566246614500DD22700322A256714689
:104FE000724500DAE1700122A2567146724500DD79
:104FF0006170401C40B2082892DB0B98B04200D090
:1050000011E72398C4B203E020980A9021980890F1
:105010000898401CC0B208902199884200D29BE6B3
:105020000A98401CC0B220990A90884200D277E6C4
:10503000104A0D49E868FFF73FFC204625B0F0BD57
:1050400030B53024D3686043C0180624045F52682A
:105050006300D55E4B00D35EAB420DDB0481C180A3
:1050600030BD0000B4B30010E40D0000A4B3001084
:10507000ACB30010940D00000824045F002C03DB87
:105080006400125F9342EBDD0181E9E7F7B58446E6
:105090000C4602983025C368614630206C4341437A
:1050A000A646CA18E41850696569401950619069AC
:1050B000A669D569E76986197D419661D561106A4F
:1050C000266A556A676A86197D4116625562D089DB
:1050D000E5894019D081108A258A401910825089AB
:1050E0006589401950819089A589284390810020C5
:1050F000A0810220022510566557A84200DA95705B
:105100000325032055572056854200DAD07070469B
:105110005D561856854200DD585401210120515634
:105120002056814200DD507006216046615EC0B2AB
:10513000029AFFF785FF0821615E002904DB6046C3
:10514000C0B2029AFFF77CFFFEBDF7B584B00498A9
:10515000049DC4680020BF4A203509E081008918F9
:105160000B795B1E0B714B795B1E401C4B71C0B2FF
:1051700091788142F2D8CDE000208446087930222F
:105180005043001942894879302358430019408917
:10519000101882B20420085603900520085601908A
:1051A000012032E0AB49830059180B793026029375
:1051B00073431B195E894B79302700937B431B197E
:1051C0005B89F3189BB2934208D21A460423CB564C
:1051D00003930523CB568446019314E0934212D1E6
:1051E000039F029B9B4EBB420DD1019F009BBB4284
:1051F00009D10623CB5E61468900891906268E5F98
:10520000B34200DACB80401CC0B292498B78834213
:10521000C8D8604681008F4804260F180520BE5765
:105220003856009086426AD0049830234268302075
:105230007043011906208C46085E009940005943CE
:1052400009190623CB5E105E5B00D25E904200DD42
:105250001046814A9289142A07D20F22EA74804BA1
:105260007E4A1B78D21812792A75EA7C4243287D3F
:1052700002410620385E824219DD60464269049888
:10528000808D824213DD4A69824210DD0A228A5EE5
:1052900060460A21415E5018297C884207DA71482D
:1052A0000078002803D170480078002827D03146C4
:1052B000049A0098FFF7EAFE0598664A401EC0B2BD
:1052C00005909078800080180188B9804088F88027
:1052D0009078401E907000990020CBB20BE08100C6
:1052E00089180F79B74200D10B714F79B74200D1BD
:1052F0004B71401CC0B2917881420BD9EFE7554900
:105300008878800040180288BA804088F8808878C1
:10531000401E88704F498878002800D02CE700266E
:10532000059F13E030207843001900908089C00762
:1053300008D109E03020704300198089C0070CD0E3
:10534000761C76B20C2EF5DB7F1CFFB20C2FE9D356
:1053500000200699074608604BE030207043001992
:1053600030220099FBF76EF900200099761C8881A5
:1053700076B2E9E7302078430619B089C00736D005
:10538000726900920192D317F169B06904F0E5F8EF
:105390006A7D04F0CFF800B2308502900390019A44
:1053A000716AD317306A04F0D8F8AA7D04F0C2F805
:1053B00001B271850398002801DA002005E0049805
:1053C000029A008D824201DB401E3085002901DAFD
:1053D000002004E00498408D814201DB401E70856E
:1053E000069801680098814201DA069908607F1CDE
:1053F000FFB205988742BDD307B0F0BDF0B50546B2
:10540000084617490978002923D0184B4900CB18C2
:105410000421595E164B1B68994201DD002A18D001
:10542000002217461146302461430C46EB680C34C9
:105430001E5BF60709D08E1C9E5759568E4204D12A
:10544000022802D3401EC0B21F53521C52B20C2A73
:10545000E8DBF0BDE40D0000C416000060030000AE
:105460001D05000023050000290500003803000089
:105470003805000010B50020F94905220446D20184
:105480004300001DCC529042FAD33821F54804F075
:10549000FBF8F448012120308174C474447581758F
:1054A000C175F148017010BD30B5ED4DCB0700D08E
:1054B000491CC9B24843002107E04C002B5BDBB21A
:1054C000934201D25B1C2B53491C8142F5D330BD62
:1054D0007047F0B5E54FE64839468D893B68E54AA7
:1054E0000121834205DDFF20D230854201D9917729
:1054F000F0BDDC4800242030C4747C680A26DE4DF0
:10550000BE5F2F78DD4D1B19ED68002F03D1DC4FF6
:105510003F7B002F08D0002B03DAAC4201DA0123D5
:1055200000E00023C3740FE0002B03DAAC4201DA81
:10553000012300E00023C374D24B1B78002B03D05F
:10554000322E01DAC17405E0C37C002B02D1037D49
:10555000002B0FD000238375447D002C06D0C47C23
:10556000002C05D0917743750375F0BD4175F0BDF2
:105570004375F0BD002242758175F0BDF0B587B06E
:105580001F2101911121029100260421415E039106
:105590000221415E16200590BB48B4463346B6460C
:1055A00035463446049132460090059850434100F8
:1055B00000980818002106901AE006984F00C05F76
:1055C000A84201DD054602E0A04200DA0446039F3E
:1055D000B84203DB36185B1C9BB207E0049FB8425D
:1055E00004DC84447046401C80B28646491CC9B223
:1055F00002988142E1D3521C0198D2B28242D4D3A4
:105600009A48614645810481066041608381714604
:10561000C18107B0F0BDFEB51F2086461620009060
:10562000994800240422015F825E08258918062219
:10563000825E455F0A27521989180C22825E112367
:105640008E180221415E0191C75F0022CD198F495A
:1056500084460295AE4208DA019D0A2D05DD0A2F27
:1056600003DD029C8C80012400E08A80142518262A
:10567000455F865F1C27AD191A26865FC75FF6193E
:10568000AD192026865FAF191626865F1E25019666
:10569000455F76190296B74207DA019E0A2E04DDAD
:1056A0000A2D02DD029CCC8002E0CA80002C06D0CC
:1056B00000246500641CE4B242539C42F9D3704656
:1056C000009D401E684345006046281800240426BB
:1056D000055F865F0A27AD190626865FC75FF61944
:1056E000AF190225455F0826865FAC46AD19AF426B
:1056F00007DA67460A2F04DD0A2E02DD0D81012438
:1057000000E00A810A250E26455F865F1227AD1943
:105710001026865FC75FF619AD191626865FAF198A
:1057200014260C25865F455FB446AE19B74207DAEA
:105730000A2D05DD65460A2D02DD4E81012400E0BB
:105740004A8116251A26455F865F2027AD191C263B
:10575000865FC75FF619AF191E261825865F455F5D
:10576000B446AE19B74206DA0A2D04DD65460A2DA5
:1057700001DD8E8102E08A81002C07D0002103E048
:105780004C00491C0253C9B29942F9D3FEBD00B581
:105790003F48FFF740FF3E48FFF7F0FE3D483E49D7
:1057A00000780978084301D1FFF793FE00BD0FB4DC
:1057B000F0B585B039481A990190394802901C9B80
:1057C00027480390052437480025002904D12F4994
:1057D00040318978002902D08472C5727CE0324958
:1057E0008A4202DA012110AA917700218172C472E3
:1057F000D80701D0581C00E01846C0B20090D80766
:1058000001D0581C00E01846C0B2864617490A204D
:10581000085E462801DD962106E0282801DD50219A
:1058200002E0192803DD28211948017206E0082248
:105830008A5E1821C943164919200872002248E0DF
:105840000098019950434000441803994518704648
:1058500050434100029808188446002135E00000BA
:10586000202500408C16000054050000C4160000DE
:10587000A0860100BC1B00001D0500008C03000079
:105880007C03000023050000D8290040D416000046
:10589000F0020000290500002A050000681C0040F5
:1058A0000C1800402C04000018FCFFFF0F4F4800AC
:1058B0002E5A3F7ABE4206D36646275A365ABF1B37
:1058C000275200262E52491C89B29942EED3521C0F
:1058D00092B21B988242B3D338220BA90A98FAF7E6
:1058E000B1FE05B0F0BC08BC04B01847F0020000DF
:1058F00070471723FE485942017049114170152124
:105900008170C943C17016220271491C4171012185
:105910008171C371704710B50446F749F5480860B6
:1059200000200871421E4A71C860012208610A7293
:1059300005228A71C8718876F04A21881180F04A60
:10594000014624234B43491CD0520C29F9DBFFF7B5
:10595000D0FFEC48046010BDF1B584B00020039086
:1059600006200290E448042686570C2E7EDA002496
:105970002420E3496043085A002803D0641C64B221
:105980000C2CF5DB049830214843DF4947180621E9
:10599000795EDE48009101780191009803F080FE65
:1059A000019A40B200994243891AD94A49B2127801
:1059B0005300D44A12689A18002805DC002E13D12F
:1059C0000420105E45100FE0D24B1B785B1F9842FD
:1059D00006DA002904DD029B0198C01A884201DC26
:1059E000002E09D00425555F7869A8422ED3C249FC
:1059F0000A69002A08D00AE00420105E0521800010
:105A000003F04EFE05B2EFE7C34A12680A610522B1
:105A10008A56002A0CDA224624235A43B84B4C718A
:105A2000BE4D9D52CA79002A08D10122CA7105E0F3
:105A30000225224624235A43B14B9D52FF23913322
:105A4000984206D38A7E521C8A7602E00399002986
:105A500019D024214C43AA49049A6118CA7701221B
:105A60004A610A8300220A814A8100E00BE08A81B0
:105A7000CA810A824A823A8D4A807A8D8A80C88099
:105A80009D48761C067105B0F0BDF0B524219C4CF4
:105A9000484301194A693023521C4A610022D2430B
:105AA000CA77225A944D9A430123DB021A43822378
:105AB000164622521E402B795B1E5BB2002E03D08D
:105AC000002121522B71F0BD8126B60017463742C6
:105AD00020D08A7F8E4F521CD2B28A7789493F7874
:105AE0000968C919097E8A42EDDB215AB143215266
:105AF0004A0609D5002121522B711A202856002868
:105B0000E1DD401EA876F0BD08221143215202209B
:105B1000E871F0BDD307FCD004231A4322520120C0
:105B20008877F0BDF0B524210446754A4C43115BDB
:105B300083231B018BB099436F4F11533B798E0721
:105B40005B1E5BB205931A23FB5607935B1E5BB289
:105B500006931346E518002E32DA1F2169563023CA
:105B60005943694BC91818234969FB5E994220DBE8
:105B70006B6939465B1C6B6105257D57C979002D22
:105B80000FDBB879834219D3105B0223984321239A
:105B900018431053624A6420107000290ED101206E
:105BA00082E0135B0225AB435C4D2B4313537871AA
:105BB000F3E7002010536DE00698B8760BB0F0BD07
:105BC00054484A070078401F0290504800780190DE
:105BD000801F08904E4800780490430049480068B0
:105BE00003901E18002A61DA68691F21401C686151
:105BF00009906956302041434348081806210A900D
:105C0000415E00910199009803F04AFD019A40B26B
:105C100000994243891A49B2002807DD029A90424E
:105C200004DA002902DD089A8A4209DC072801DB30
:105C3000012902DA0C20305E08E00C20305E0DE015
:105C4000072801DB012907DA0820305E0A21C0009D
:105C500003F026FD00B201E00820305E0A9A2849D0
:105C60005269824204DB0A5B042082430A53A5E79F
:105C7000A87F401CC0B2A877049B039AD218127E5A
:105C800090429BDB085B042290430853420607D5F1
:105C90000020085305983871079800288CDC8DE7A0
:105CA0000822104308530220F87187E7C80785D0FF
:105CB00068691F21401C68616956302041431248C1
:105CC000062708180090C75F0199384603F0E8FCE2
:105CD000019940B24143791A49B2002826DD029A5F
